{
	"contracts/FundMe.sol": {
		"FundMe": {
			"abi": [
				{
					"inputs": [],
					"stateMutability": "nonpayable",
					"type": "constructor"
				},
				{
					"inputs": [
						{
							"internalType": "address",
							"name": "",
							"type": "address"
						}
					],
					"name": "addressToAmountFunded",
					"outputs": [
						{
							"internalType": "uint256",
							"name": "",
							"type": "uint256"
						}
					],
					"stateMutability": "view",
					"type": "function"
				},
				{
					"inputs": [],
					"name": "fund",
					"outputs": [],
					"stateMutability": "payable",
					"type": "function"
				},
				{
					"inputs": [
						{
							"internalType": "uint256",
							"name": "",
							"type": "uint256"
						}
					],
					"name": "funders",
					"outputs": [
						{
							"internalType": "address",
							"name": "",
							"type": "address"
						}
					],
					"stateMutability": "view",
					"type": "function"
				},
				{
					"inputs": [],
					"name": "minimumUsd",
					"outputs": [
						{
							"internalType": "uint256",
							"name": "",
							"type": "uint256"
						}
					],
					"stateMutability": "view",
					"type": "function"
				},
				{
					"inputs": [],
					"name": "owner",
					"outputs": [
						{
							"internalType": "address",
							"name": "",
							"type": "address"
						}
					],
					"stateMutability": "view",
					"type": "function"
				},
				{
					"inputs": [],
					"name": "withdraw",
					"outputs": [],
					"stateMutability": "nonpayable",
					"type": "function"
				}
			],
			"devdoc": {
				"kind": "dev",
				"methods": {},
				"version": 1
			},
			"evm": {
				"assembly": "    /* \"contracts/FundMe.sol\":94:1246  contract FundMe{... */\n  mstore(0x40, 0x80)\n    /* \"contracts/FundMe.sol\":185:194  50 * 1e18 */\n  0x02b5e3af16b1880000\n    /* \"contracts/FundMe.sol\":157:194  uint256 public minimumUsd = 50 * 1e18 */\n  0x00\n  sstore\n    /* \"contracts/FundMe.sol\":357:407  constructor(){... */\n  callvalue\n  dup1\n  iszero\n  tag_1\n  jumpi\n  0x00\n  dup1\n  revert\ntag_1:\n  pop\n    /* \"contracts/FundMe.sol\":389:399  msg.sender */\n  caller\n    /* \"contracts/FundMe.sol\":381:386  owner */\n  0x03\n  0x00\n    /* \"contracts/FundMe.sol\":381:399  owner = msg.sender */\n  0x0100\n  exp\n  dup2\n  sload\n  dup2\n  0xffffffffffffffffffffffffffffffffffffffff\n  mul\n  not\n  and\n  swap1\n  dup4\n  0xffffffffffffffffffffffffffffffffffffffff\n  and\n  mul\n  or\n  swap1\n  sstore\n  pop\n    /* \"contracts/FundMe.sol\":94:1246  contract FundMe{... */\n  dataSize(sub_0)\n  dup1\n  dataOffset(sub_0)\n  0x00\n  codecopy\n  0x00\n  return\nstop\n\nsub_0: assembly {\n        /* \"contracts/FundMe.sol\":94:1246  contract FundMe{... */\n      mstore(0x40, 0x80)\n      jumpi(tag_1, lt(calldatasize, 0x04))\n      shr(0xe0, calldataload(0x00))\n      dup1\n      0x098de820\n      eq\n      tag_2\n      jumpi\n      dup1\n      0x3ccfd60b\n      eq\n      tag_3\n      jumpi\n      dup1\n      0x3e47d6f3\n      eq\n      tag_4\n      jumpi\n      dup1\n      0x8da5cb5b\n      eq\n      tag_5\n      jumpi\n      dup1\n      0xb60d4288\n      eq\n      tag_6\n      jumpi\n      dup1\n      0xdc0d3dff\n      eq\n      tag_7\n      jumpi\n    tag_1:\n      0x00\n      dup1\n      revert\n        /* \"contracts/FundMe.sol\":157:194  uint256 public minimumUsd = 50 * 1e18 */\n    tag_2:\n      callvalue\n      dup1\n      iszero\n      tag_8\n      jumpi\n      0x00\n      dup1\n      revert\n    tag_8:\n      pop\n      tag_9\n      tag_10\n      jump\t// in\n    tag_9:\n      mload(0x40)\n      tag_11\n      swap2\n      swap1\n      tag_12\n      jump\t// in\n    tag_11:\n      mload(0x40)\n      dup1\n      swap2\n      sub\n      swap1\n      return\n        /* \"contracts/FundMe.sol\":639:1115  function withdraw() public onlyOwner{... */\n    tag_3:\n      callvalue\n      dup1\n      iszero\n      tag_13\n      jumpi\n      0x00\n      dup1\n      revert\n    tag_13:\n      pop\n      tag_14\n      tag_15\n      jump\t// in\n    tag_14:\n      stop\n        /* \"contracts/FundMe.sol\":235:291  mapping(address => uint256) public addressToAmountFunded */\n    tag_4:\n      callvalue\n      dup1\n      iszero\n      tag_16\n      jumpi\n      0x00\n      dup1\n      revert\n    tag_16:\n      pop\n      tag_17\n      0x04\n      dup1\n      calldatasize\n      sub\n      dup2\n      add\n      swap1\n      tag_18\n      swap2\n      swap1\n      tag_19\n      jump\t// in\n    tag_18:\n      tag_20\n      jump\t// in\n    tag_17:\n      mload(0x40)\n      tag_21\n      swap2\n      swap1\n      tag_12\n      jump\t// in\n    tag_21:\n      mload(0x40)\n      dup1\n      swap2\n      sub\n      swap1\n      return\n        /* \"contracts/FundMe.sol\":300:320  address public owner */\n    tag_5:\n      callvalue\n      dup1\n      iszero\n      tag_22\n      jumpi\n      0x00\n      dup1\n      revert\n    tag_22:\n      pop\n      tag_23\n      tag_24\n      jump\t// in\n    tag_23:\n      mload(0x40)\n      tag_25\n      swap2\n      swap1\n      tag_26\n      jump\t// in\n    tag_25:\n      mload(0x40)\n      dup1\n      swap2\n      sub\n      swap1\n      return\n        /* \"contracts/FundMe.sol\":415:631  function fund() public payable{... */\n    tag_6:\n      tag_27\n      tag_28\n      jump\t// in\n    tag_27:\n      stop\n        /* \"contracts/FundMe.sol\":204:228  address[] public funders */\n    tag_7:\n      callvalue\n      dup1\n      iszero\n      tag_29\n      jumpi\n      0x00\n      dup1\n      revert\n    tag_29:\n      pop\n      tag_30\n      0x04\n      dup1\n      calldatasize\n      sub\n      dup2\n      add\n      swap1\n      tag_31\n      swap2\n      swap1\n      tag_32\n      jump\t// in\n    tag_31:\n      tag_33\n      jump\t// in\n    tag_30:\n      mload(0x40)\n      tag_34\n      swap2\n      swap1\n      tag_26\n      jump\t// in\n    tag_34:\n      mload(0x40)\n      dup1\n      swap2\n      sub\n      swap1\n      return\n        /* \"contracts/FundMe.sol\":157:194  uint256 public minimumUsd = 50 * 1e18 */\n    tag_10:\n      sload(0x00)\n      dup2\n      jump\t// out\n        /* \"contracts/FundMe.sol\":639:1115  function withdraw() public onlyOwner{... */\n    tag_15:\n        /* \"contracts/FundMe.sol\":1175:1180  owner */\n      0x03\n      0x00\n      swap1\n      sload\n      swap1\n      0x0100\n      exp\n      swap1\n      div\n      0xffffffffffffffffffffffffffffffffffffffff\n      and\n        /* \"contracts/FundMe.sol\":1161:1180  msg.sender == owner */\n      0xffffffffffffffffffffffffffffffffffffffff\n      and\n        /* \"contracts/FundMe.sol\":1161:1171  msg.sender */\n      caller\n        /* \"contracts/FundMe.sol\":1161:1180  msg.sender == owner */\n      0xffffffffffffffffffffffffffffffffffffffff\n      and\n      eq\n        /* \"contracts/FundMe.sol\":1153:1223  require(msg.sender == owner, \"Your are not the owner of the contract\") */\n      tag_36\n      jumpi\n      mload(0x40)\n      0x08c379a000000000000000000000000000000000000000000000000000000000\n      dup2\n      mstore\n      0x04\n      add\n      tag_37\n      swap1\n      tag_38\n      jump\t// in\n    tag_37:\n      mload(0x40)\n      dup1\n      swap2\n      sub\n      swap1\n      revert\n    tag_36:\n        /* \"contracts/FundMe.sol\":690:709  uint256 funderIndex */\n      0x00\n        /* \"contracts/FundMe.sol\":686:869  for(uint256 funderIndex=0; funderIndex < funders.length; funderIndex++){... */\n    tag_40:\n        /* \"contracts/FundMe.sol\":727:734  funders */\n      0x01\n        /* \"contracts/FundMe.sol\":727:741  funders.length */\n      dup1\n      sload\n      swap1\n      pop\n        /* \"contracts/FundMe.sol\":713:724  funderIndex */\n      dup2\n        /* \"contracts/FundMe.sol\":713:741  funderIndex < funders.length */\n      lt\n        /* \"contracts/FundMe.sol\":686:869  for(uint256 funderIndex=0; funderIndex < funders.length; funderIndex++){... */\n      iszero\n      tag_41\n      jumpi\n        /* \"contracts/FundMe.sol\":772:786  address funder */\n      0x00\n        /* \"contracts/FundMe.sol\":789:796  funders */\n      0x01\n        /* \"contracts/FundMe.sol\":797:808  funderIndex */\n      dup3\n        /* \"contracts/FundMe.sol\":789:809  funders[funderIndex] */\n      dup2\n      sload\n      dup2\n      lt\n      tag_43\n      jumpi\n      tag_44\n      tag_45\n      jump\t// in\n    tag_44:\n    tag_43:\n      swap1\n      0x00\n      mstore\n      keccak256(0x00, 0x20)\n      add\n      0x00\n      swap1\n      sload\n      swap1\n      0x0100\n      exp\n      swap1\n      div\n      0xffffffffffffffffffffffffffffffffffffffff\n      and\n        /* \"contracts/FundMe.sol\":772:809  address funder = funders[funderIndex] */\n      swap1\n      pop\n        /* \"contracts/FundMe.sol\":856:857  0 */\n      0x00\n        /* \"contracts/FundMe.sol\":824:845  addressToAmountFunded */\n      0x02\n        /* \"contracts/FundMe.sol\":824:853  addressToAmountFunded[funder] */\n      0x00\n        /* \"contracts/FundMe.sol\":846:852  funder */\n      dup4\n        /* \"contracts/FundMe.sol\":824:853  addressToAmountFunded[funder] */\n      0xffffffffffffffffffffffffffffffffffffffff\n      and\n      0xffffffffffffffffffffffffffffffffffffffff\n      and\n      dup2\n      mstore\n      0x20\n      add\n      swap1\n      dup2\n      mstore\n      0x20\n      add\n      0x00\n      keccak256\n        /* \"contracts/FundMe.sol\":824:857  addressToAmountFunded[funder] = 0 */\n      dup2\n      swap1\n      sstore\n      pop\n        /* \"contracts/FundMe.sol\":757:869  {... */\n      pop\n        /* \"contracts/FundMe.sol\":743:756  funderIndex++ */\n      dup1\n      dup1\n      tag_47\n      swap1\n      tag_48\n      jump\t// in\n    tag_47:\n      swap2\n      pop\n      pop\n        /* \"contracts/FundMe.sol\":686:869  for(uint256 funderIndex=0; funderIndex < funders.length; funderIndex++){... */\n      jump(tag_40)\n    tag_41:\n      pop\n        /* \"contracts/FundMe.sol\":928:929  0 */\n      0x00\n        /* \"contracts/FundMe.sol\":914:930  new address[](0) */\n      0xffffffffffffffff\n      dup2\n      gt\n      iszero\n      tag_49\n      jumpi\n      tag_50\n      tag_51\n      jump\t// in\n    tag_50:\n    tag_49:\n      mload(0x40)\n      swap1\n      dup1\n      dup3\n      mstore\n      dup1\n      0x20\n      mul\n      0x20\n      add\n      dup3\n      add\n      0x40\n      mstore\n      dup1\n      iszero\n      tag_52\n      jumpi\n      dup2\n      0x20\n      add\n      0x20\n      dup3\n      mul\n      dup1\n      calldatasize\n      dup4\n      calldatacopy\n      dup1\n      dup3\n      add\n      swap2\n      pop\n      pop\n      swap1\n      pop\n    tag_52:\n      pop\n        /* \"contracts/FundMe.sol\":904:911  funders */\n      0x01\n        /* \"contracts/FundMe.sol\":904:930  funders = new address[](0) */\n      swap1\n      dup1\n      mload\n      swap1\n      0x20\n      add\n      swap1\n      tag_53\n      swap3\n      swap2\n      swap1\n      tag_54\n      jump\t// in\n    tag_53:\n      pop\n        /* \"contracts/FundMe.sol\":981:997  bool callSuccess */\n      0x00\n        /* \"contracts/FundMe.sol\":1011:1021  msg.sender */\n      caller\n        /* \"contracts/FundMe.sol\":1003:1027  payable(msg.sender).call */\n      0xffffffffffffffffffffffffffffffffffffffff\n      and\n        /* \"contracts/FundMe.sol\":1035:1056  address(this).balance */\n      selfbalance\n        /* \"contracts/FundMe.sol\":1003:1061  payable(msg.sender).call{value: address(this).balance}(\"\") */\n      mload(0x40)\n      tag_55\n      swap1\n      tag_56\n      jump\t// in\n    tag_55:\n      0x00\n      mload(0x40)\n      dup1\n      dup4\n      sub\n      dup2\n      dup6\n      dup8\n      gas\n      call\n      swap3\n      pop\n      pop\n      pop\n      returndatasize\n      dup1\n      0x00\n      dup2\n      eq\n      tag_59\n      jumpi\n      mload(0x40)\n      swap2\n      pop\n      and(add(returndatasize, 0x3f), not(0x1f))\n      dup3\n      add\n      0x40\n      mstore\n      returndatasize\n      dup3\n      mstore\n      returndatasize\n      0x00\n      0x20\n      dup5\n      add\n      returndatacopy\n      jump(tag_58)\n    tag_59:\n      0x60\n      swap2\n      pop\n    tag_58:\n      pop\n        /* \"contracts/FundMe.sol\":980:1061  (bool callSuccess, ) = payable(msg.sender).call{value: address(this).balance}(\"\") */\n      pop\n      swap1\n      pop\n        /* \"contracts/FundMe.sol\":1080:1091  callSuccess */\n      dup1\n        /* \"contracts/FundMe.sol\":1072:1107  require(callSuccess, \"Call failed\") */\n      tag_60\n      jumpi\n      mload(0x40)\n      0x08c379a000000000000000000000000000000000000000000000000000000000\n      dup2\n      mstore\n      0x04\n      add\n      tag_61\n      swap1\n      tag_62\n      jump\t// in\n    tag_61:\n      mload(0x40)\n      dup1\n      swap2\n      sub\n      swap1\n      revert\n    tag_60:\n        /* \"contracts/FundMe.sol\":675:1115  {... */\n      pop\n        /* \"contracts/FundMe.sol\":639:1115  function withdraw() public onlyOwner{... */\n      jump\t// out\n        /* \"contracts/FundMe.sol\":235:291  mapping(address => uint256) public addressToAmountFunded */\n    tag_20:\n      mstore(0x20, 0x02)\n      dup1\n      0x00\n      mstore\n      keccak256(0x00, 0x40)\n      0x00\n      swap2\n      pop\n      swap1\n      pop\n      sload\n      dup2\n      jump\t// out\n        /* \"contracts/FundMe.sol\":300:320  address public owner */\n    tag_24:\n      0x03\n      0x00\n      swap1\n      sload\n      swap1\n      0x0100\n      exp\n      swap1\n      div\n      0xffffffffffffffffffffffffffffffffffffffff\n      and\n      dup2\n      jump\t// out\n        /* \"contracts/FundMe.sol\":415:631  function fund() public payable{... */\n    tag_28:\n        /* \"contracts/FundMe.sol\":497:507  minimumUsd */\n      sload(0x00)\n        /* \"contracts/FundMe.sol\":464:493  msg.value.getConversionRate() */\n      tag_64\n        /* \"contracts/FundMe.sol\":464:473  msg.value */\n      callvalue\n        /* \"contracts/FundMe.sol\":464:491  msg.value.getConversionRate */\n      tag_65\n        /* \"contracts/FundMe.sol\":464:493  msg.value.getConversionRate() */\n      jump\t// in\n    tag_64:\n        /* \"contracts/FundMe.sol\":464:507  msg.value.getConversionRate() >= minimumUsd */\n      lt\n      iszero\n        /* \"contracts/FundMe.sol\":456:531  require(msg.value.getConversionRate() >= minimumUsd, \"Didn't send enough!\") */\n      tag_66\n      jumpi\n      mload(0x40)\n      0x08c379a000000000000000000000000000000000000000000000000000000000\n      dup2\n      mstore\n      0x04\n      add\n      tag_67\n      swap1\n      tag_68\n      jump\t// in\n    tag_67:\n      mload(0x40)\n      dup1\n      swap2\n      sub\n      swap1\n      revert\n    tag_66:\n        /* \"contracts/FundMe.sol\":542:549  funders */\n      0x01\n        /* \"contracts/FundMe.sol\":555:565  msg.sender */\n      caller\n        /* \"contracts/FundMe.sol\":542:566  funders.push(msg.sender) */\n      swap1\n      dup1\n      0x01\n      dup2\n      sload\n      add\n      dup1\n      dup3\n      sstore\n      dup1\n      swap2\n      pop\n      pop\n      0x01\n      swap1\n      sub\n      swap1\n      0x00\n      mstore\n      keccak256(0x00, 0x20)\n      add\n      0x00\n      swap1\n      swap2\n      swap1\n      swap2\n      swap1\n      swap2\n      0x0100\n      exp\n      dup2\n      sload\n      dup2\n      0xffffffffffffffffffffffffffffffffffffffff\n      mul\n      not\n      and\n      swap1\n      dup4\n      0xffffffffffffffffffffffffffffffffffffffff\n      and\n      mul\n      or\n      swap1\n      sstore\n      pop\n        /* \"contracts/FundMe.sol\":614:623  msg.value */\n      callvalue\n        /* \"contracts/FundMe.sol\":577:598  addressToAmountFunded */\n      0x02\n        /* \"contracts/FundMe.sol\":577:610  addressToAmountFunded[msg.sender] */\n      0x00\n        /* \"contracts/FundMe.sol\":599:609  msg.sender */\n      caller\n        /* \"contracts/FundMe.sol\":577:610  addressToAmountFunded[msg.sender] */\n      0xffffffffffffffffffffffffffffffffffffffff\n      and\n      0xffffffffffffffffffffffffffffffffffffffff\n      and\n      dup2\n      mstore\n      0x20\n      add\n      swap1\n      dup2\n      mstore\n      0x20\n      add\n      0x00\n      keccak256\n      0x00\n        /* \"contracts/FundMe.sol\":577:623  addressToAmountFunded[msg.sender] += msg.value */\n      dup3\n      dup3\n      sload\n      tag_70\n      swap2\n      swap1\n      tag_71\n      jump\t// in\n    tag_70:\n      swap3\n      pop\n      pop\n      dup2\n      swap1\n      sstore\n      pop\n        /* \"contracts/FundMe.sol\":415:631  function fund() public payable{... */\n      jump\t// out\n        /* \"contracts/FundMe.sol\":204:228  address[] public funders */\n    tag_33:\n      0x01\n      dup2\n      dup2\n      sload\n      dup2\n      lt\n      tag_72\n      jumpi\n      0x00\n      dup1\n      revert\n    tag_72:\n      swap1\n      0x00\n      mstore\n      keccak256(0x00, 0x20)\n      add\n      0x00\n      swap2\n      pop\n      sload\n      swap1\n      0x0100\n      exp\n      swap1\n      div\n      0xffffffffffffffffffffffffffffffffffffffff\n      and\n      dup2\n      jump\t// out\n        /* \"contracts/PriceConverter.sol\":733:970  function getConversionRate(uint256 ethAmount) internal view returns(uint256){... */\n    tag_65:\n        /* \"contracts/PriceConverter.sol\":801:808  uint256 */\n      0x00\n        /* \"contracts/PriceConverter.sol\":820:836  uint256 ethPrice */\n      dup1\n        /* \"contracts/PriceConverter.sol\":839:851  getVersion() */\n      tag_75\n        /* \"contracts/PriceConverter.sol\":839:849  getVersion */\n      tag_76\n        /* \"contracts/PriceConverter.sol\":839:851  getVersion() */\n      jump\t// in\n    tag_75:\n        /* \"contracts/PriceConverter.sol\":820:851  uint256 ethPrice = getVersion() */\n      swap1\n      pop\n        /* \"contracts/PriceConverter.sol\":862:884  uint256 ethAmountInUsd */\n      0x00\n        /* \"contracts/PriceConverter.sol\":910:929  1000000000000000000 */\n      0x0de0b6b3a7640000\n        /* \"contracts/PriceConverter.sol\":900:908  ethPrice */\n      dup3\n        /* \"contracts/PriceConverter.sol\":888:897  ethAmount */\n      dup6\n        /* \"contracts/PriceConverter.sol\":888:908  ethAmount * ethPrice */\n      tag_77\n      swap2\n      swap1\n      tag_78\n      jump\t// in\n    tag_77:\n        /* \"contracts/PriceConverter.sol\":887:929  (ethAmount * ethPrice)/1000000000000000000 */\n      tag_79\n      swap2\n      swap1\n      tag_80\n      jump\t// in\n    tag_79:\n        /* \"contracts/PriceConverter.sol\":862:929  uint256 ethAmountInUsd = (ethAmount * ethPrice)/1000000000000000000 */\n      swap1\n      pop\n        /* \"contracts/PriceConverter.sol\":948:962  ethAmountInUsd */\n      dup1\n        /* \"contracts/PriceConverter.sol\":941:962  return ethAmountInUsd */\n      swap3\n      pop\n      pop\n      pop\n        /* \"contracts/PriceConverter.sol\":733:970  function getConversionRate(uint256 ethAmount) internal view returns(uint256){... */\n      swap2\n      swap1\n      pop\n      jump\t// out\n        /* \"contracts/PriceConverter.sol\":518:725  function getVersion() internal view returns(uint256){... */\n    tag_76:\n        /* \"contracts/PriceConverter.sol\":562:569  uint256 */\n      0x00\n        /* \"contracts/PriceConverter.sol\":581:612  AggregatorV3Interface priceFeed */\n      dup1\n        /* \"contracts/PriceConverter.sol\":637:679  0xD4a33860578De61DBAbDc8BFdb98FD742fA7028e */\n      0xd4a33860578de61dbabdc8bfdb98fd742fa7028e\n        /* \"contracts/PriceConverter.sol\":581:680  AggregatorV3Interface priceFeed = AggregatorV3Interface(0xD4a33860578De61DBAbDc8BFdb98FD742fA7028e) */\n      swap1\n      pop\n        /* \"contracts/PriceConverter.sol\":698:707  priceFeed */\n      dup1\n        /* \"contracts/PriceConverter.sol\":698:715  priceFeed.version */\n      0xffffffffffffffffffffffffffffffffffffffff\n      and\n      0x54fd4d50\n        /* \"contracts/PriceConverter.sol\":698:717  priceFeed.version() */\n      mload(0x40)\n      dup2\n      0xffffffff\n      and\n      0xe0\n      shl\n      dup2\n      mstore\n      0x04\n      add\n      0x20\n      mload(0x40)\n      dup1\n      dup4\n      sub\n      dup2\n      dup7\n      gas\n      staticcall\n      iszero\n      dup1\n      iszero\n      tag_83\n      jumpi\n      returndatasize\n      0x00\n      dup1\n      returndatacopy\n      revert(0x00, returndatasize)\n    tag_83:\n      pop\n      pop\n      pop\n      pop\n      mload(0x40)\n      returndatasize\n      not(0x1f)\n      0x1f\n      dup3\n      add\n      and\n      dup3\n      add\n      dup1\n      0x40\n      mstore\n      pop\n      dup2\n      add\n      swap1\n      tag_84\n      swap2\n      swap1\n      tag_85\n      jump\t// in\n    tag_84:\n        /* \"contracts/PriceConverter.sol\":691:717  return priceFeed.version() */\n      swap2\n      pop\n      pop\n        /* \"contracts/PriceConverter.sol\":518:725  function getVersion() internal view returns(uint256){... */\n      swap1\n      jump\t// out\n    tag_54:\n      dup3\n      dup1\n      sload\n      dup3\n      dup3\n      sstore\n      swap1\n      0x00\n      mstore\n      keccak256(0x00, 0x20)\n      swap1\n      dup2\n      add\n      swap3\n      dup3\n      iszero\n      tag_86\n      jumpi\n      swap2\n      0x20\n      mul\n      dup3\n      add\n    tag_87:\n      dup3\n      dup2\n      gt\n      iszero\n      tag_88\n      jumpi\n      dup3\n      mload\n      dup3\n      exp(0x0100, 0x00)\n      dup2\n      sload\n      dup2\n      0xffffffffffffffffffffffffffffffffffffffff\n      mul\n      not\n      and\n      swap1\n      dup4\n      0xffffffffffffffffffffffffffffffffffffffff\n      and\n      mul\n      or\n      swap1\n      sstore\n      pop\n      swap2\n      0x20\n      add\n      swap2\n      swap1\n      0x01\n      add\n      swap1\n      jump(tag_87)\n    tag_88:\n    tag_86:\n      pop\n      swap1\n      pop\n      tag_89\n      swap2\n      swap1\n      tag_90\n      jump\t// in\n    tag_89:\n      pop\n      swap1\n      jump\t// out\n    tag_90:\n    tag_91:\n      dup1\n      dup3\n      gt\n      iszero\n      tag_92\n      jumpi\n      0x00\n      dup2\n      0x00\n      swap1\n      sstore\n      pop\n      0x01\n      add\n      jump(tag_91)\n    tag_92:\n      pop\n      swap1\n      jump\t// out\n        /* \"#utility.yul\":7:84   */\n    tag_93:\n        /* \"#utility.yul\":44:51   */\n      0x00\n        /* \"#utility.yul\":73:78   */\n      dup2\n        /* \"#utility.yul\":62:78   */\n      swap1\n      pop\n        /* \"#utility.yul\":7:84   */\n      swap2\n      swap1\n      pop\n      jump\t// out\n        /* \"#utility.yul\":90:208   */\n    tag_94:\n        /* \"#utility.yul\":177:201   */\n      tag_121\n        /* \"#utility.yul\":195:200   */\n      dup2\n        /* \"#utility.yul\":177:201   */\n      tag_93\n      jump\t// in\n    tag_121:\n        /* \"#utility.yul\":172:175   */\n      dup3\n        /* \"#utility.yul\":165:202   */\n      mstore\n        /* \"#utility.yul\":90:208   */\n      pop\n      pop\n      jump\t// out\n        /* \"#utility.yul\":214:436   */\n    tag_12:\n        /* \"#utility.yul\":307:311   */\n      0x00\n        /* \"#utility.yul\":345:347   */\n      0x20\n        /* \"#utility.yul\":334:343   */\n      dup3\n        /* \"#utility.yul\":330:348   */\n      add\n        /* \"#utility.yul\":322:348   */\n      swap1\n      pop\n        /* \"#utility.yul\":358:429   */\n      tag_123\n        /* \"#utility.yul\":426:427   */\n      0x00\n        /* \"#utility.yul\":415:424   */\n      dup4\n        /* \"#utility.yul\":411:428   */\n      add\n        /* \"#utility.yul\":402:408   */\n      dup5\n        /* \"#utility.yul\":358:429   */\n      tag_94\n      jump\t// in\n    tag_123:\n        /* \"#utility.yul\":214:436   */\n      swap3\n      swap2\n      pop\n      pop\n      jump\t// out\n        /* \"#utility.yul\":523:640   */\n    tag_96:\n        /* \"#utility.yul\":632:633   */\n      0x00\n        /* \"#utility.yul\":629:630   */\n      dup1\n        /* \"#utility.yul\":622:634   */\n      revert\n        /* \"#utility.yul\":769:895   */\n    tag_98:\n        /* \"#utility.yul\":806:813   */\n      0x00\n        /* \"#utility.yul\":846:888   */\n      0xffffffffffffffffffffffffffffffffffffffff\n        /* \"#utility.yul\":839:844   */\n      dup3\n        /* \"#utility.yul\":835:889   */\n      and\n        /* \"#utility.yul\":824:889   */\n      swap1\n      pop\n        /* \"#utility.yul\":769:895   */\n      swap2\n      swap1\n      pop\n      jump\t// out\n        /* \"#utility.yul\":901:997   */\n    tag_99:\n        /* \"#utility.yul\":938:945   */\n      0x00\n        /* \"#utility.yul\":967:991   */\n      tag_129\n        /* \"#utility.yul\":985:990   */\n      dup3\n        /* \"#utility.yul\":967:991   */\n      tag_98\n      jump\t// in\n    tag_129:\n        /* \"#utility.yul\":956:991   */\n      swap1\n      pop\n        /* \"#utility.yul\":901:997   */\n      swap2\n      swap1\n      pop\n      jump\t// out\n        /* \"#utility.yul\":1003:1125   */\n    tag_100:\n        /* \"#utility.yul\":1076:1100   */\n      tag_131\n        /* \"#utility.yul\":1094:1099   */\n      dup2\n        /* \"#utility.yul\":1076:1100   */\n      tag_99\n      jump\t// in\n    tag_131:\n        /* \"#utility.yul\":1069:1074   */\n      dup2\n        /* \"#utility.yul\":1066:1101   */\n      eq\n        /* \"#utility.yul\":1056:1119   */\n      tag_132\n      jumpi\n        /* \"#utility.yul\":1115:1116   */\n      0x00\n        /* \"#utility.yul\":1112:1113   */\n      dup1\n        /* \"#utility.yul\":1105:1117   */\n      revert\n        /* \"#utility.yul\":1056:1119   */\n    tag_132:\n        /* \"#utility.yul\":1003:1125   */\n      pop\n      jump\t// out\n        /* \"#utility.yul\":1131:1270   */\n    tag_101:\n        /* \"#utility.yul\":1177:1182   */\n      0x00\n        /* \"#utility.yul\":1215:1221   */\n      dup2\n        /* \"#utility.yul\":1202:1222   */\n      calldataload\n        /* \"#utility.yul\":1193:1222   */\n      swap1\n      pop\n        /* \"#utility.yul\":1231:1264   */\n      tag_134\n        /* \"#utility.yul\":1258:1263   */\n      dup2\n        /* \"#utility.yul\":1231:1264   */\n      tag_100\n      jump\t// in\n    tag_134:\n        /* \"#utility.yul\":1131:1270   */\n      swap3\n      swap2\n      pop\n      pop\n      jump\t// out\n        /* \"#utility.yul\":1276:1605   */\n    tag_19:\n        /* \"#utility.yul\":1335:1341   */\n      0x00\n        /* \"#utility.yul\":1384:1386   */\n      0x20\n        /* \"#utility.yul\":1372:1381   */\n      dup3\n        /* \"#utility.yul\":1363:1370   */\n      dup5\n        /* \"#utility.yul\":1359:1382   */\n      sub\n        /* \"#utility.yul\":1355:1387   */\n      slt\n        /* \"#utility.yul\":1352:1471   */\n      iszero\n      tag_136\n      jumpi\n        /* \"#utility.yul\":1390:1469   */\n      tag_137\n      tag_96\n      jump\t// in\n    tag_137:\n        /* \"#utility.yul\":1352:1471   */\n    tag_136:\n        /* \"#utility.yul\":1510:1511   */\n      0x00\n        /* \"#utility.yul\":1535:1588   */\n      tag_138\n        /* \"#utility.yul\":1580:1587   */\n      dup5\n        /* \"#utility.yul\":1571:1577   */\n      dup3\n        /* \"#utility.yul\":1560:1569   */\n      dup6\n        /* \"#utility.yul\":1556:1578   */\n      add\n        /* \"#utility.yul\":1535:1588   */\n      tag_101\n      jump\t// in\n    tag_138:\n        /* \"#utility.yul\":1525:1588   */\n      swap2\n      pop\n        /* \"#utility.yul\":1481:1598   */\n      pop\n        /* \"#utility.yul\":1276:1605   */\n      swap3\n      swap2\n      pop\n      pop\n      jump\t// out\n        /* \"#utility.yul\":1611:1729   */\n    tag_102:\n        /* \"#utility.yul\":1698:1722   */\n      tag_140\n        /* \"#utility.yul\":1716:1721   */\n      dup2\n        /* \"#utility.yul\":1698:1722   */\n      tag_99\n      jump\t// in\n    tag_140:\n        /* \"#utility.yul\":1693:1696   */\n      dup3\n        /* \"#utility.yul\":1686:1723   */\n      mstore\n        /* \"#utility.yul\":1611:1729   */\n      pop\n      pop\n      jump\t// out\n        /* \"#utility.yul\":1735:1957   */\n    tag_26:\n        /* \"#utility.yul\":1828:1832   */\n      0x00\n        /* \"#utility.yul\":1866:1868   */\n      0x20\n        /* \"#utility.yul\":1855:1864   */\n      dup3\n        /* \"#utility.yul\":1851:1869   */\n      add\n        /* \"#utility.yul\":1843:1869   */\n      swap1\n      pop\n        /* \"#utility.yul\":1879:1950   */\n      tag_142\n        /* \"#utility.yul\":1947:1948   */\n      0x00\n        /* \"#utility.yul\":1936:1945   */\n      dup4\n        /* \"#utility.yul\":1932:1949   */\n      add\n        /* \"#utility.yul\":1923:1929   */\n      dup5\n        /* \"#utility.yul\":1879:1950   */\n      tag_102\n      jump\t// in\n    tag_142:\n        /* \"#utility.yul\":1735:1957   */\n      swap3\n      swap2\n      pop\n      pop\n      jump\t// out\n        /* \"#utility.yul\":1963:2085   */\n    tag_103:\n        /* \"#utility.yul\":2036:2060   */\n      tag_144\n        /* \"#utility.yul\":2054:2059   */\n      dup2\n        /* \"#utility.yul\":2036:2060   */\n      tag_93\n      jump\t// in\n    tag_144:\n        /* \"#utility.yul\":2029:2034   */\n      dup2\n        /* \"#utility.yul\":2026:2061   */\n      eq\n        /* \"#utility.yul\":2016:2079   */\n      tag_145\n      jumpi\n        /* \"#utility.yul\":2075:2076   */\n      0x00\n        /* \"#utility.yul\":2072:2073   */\n      dup1\n        /* \"#utility.yul\":2065:2077   */\n      revert\n        /* \"#utility.yul\":2016:2079   */\n    tag_145:\n        /* \"#utility.yul\":1963:2085   */\n      pop\n      jump\t// out\n        /* \"#utility.yul\":2091:2230   */\n    tag_104:\n        /* \"#utility.yul\":2137:2142   */\n      0x00\n        /* \"#utility.yul\":2175:2181   */\n      dup2\n        /* \"#utility.yul\":2162:2182   */\n      calldataload\n        /* \"#utility.yul\":2153:2182   */\n      swap1\n      pop\n        /* \"#utility.yul\":2191:2224   */\n      tag_147\n        /* \"#utility.yul\":2218:2223   */\n      dup2\n        /* \"#utility.yul\":2191:2224   */\n      tag_103\n      jump\t// in\n    tag_147:\n        /* \"#utility.yul\":2091:2230   */\n      swap3\n      swap2\n      pop\n      pop\n      jump\t// out\n        /* \"#utility.yul\":2236:2565   */\n    tag_32:\n        /* \"#utility.yul\":2295:2301   */\n      0x00\n        /* \"#utility.yul\":2344:2346   */\n      0x20\n        /* \"#utility.yul\":2332:2341   */\n      dup3\n        /* \"#utility.yul\":2323:2330   */\n      dup5\n        /* \"#utility.yul\":2319:2342   */\n      sub\n        /* \"#utility.yul\":2315:2347   */\n      slt\n        /* \"#utility.yul\":2312:2431   */\n      iszero\n      tag_149\n      jumpi\n        /* \"#utility.yul\":2350:2429   */\n      tag_150\n      tag_96\n      jump\t// in\n    tag_150:\n        /* \"#utility.yul\":2312:2431   */\n    tag_149:\n        /* \"#utility.yul\":2470:2471   */\n      0x00\n        /* \"#utility.yul\":2495:2548   */\n      tag_151\n        /* \"#utility.yul\":2540:2547   */\n      dup5\n        /* \"#utility.yul\":2531:2537   */\n      dup3\n        /* \"#utility.yul\":2520:2529   */\n      dup6\n        /* \"#utility.yul\":2516:2538   */\n      add\n        /* \"#utility.yul\":2495:2548   */\n      tag_104\n      jump\t// in\n    tag_151:\n        /* \"#utility.yul\":2485:2548   */\n      swap2\n      pop\n        /* \"#utility.yul\":2441:2558   */\n      pop\n        /* \"#utility.yul\":2236:2565   */\n      swap3\n      swap2\n      pop\n      pop\n      jump\t// out\n        /* \"#utility.yul\":2571:2740   */\n    tag_105:\n        /* \"#utility.yul\":2655:2666   */\n      0x00\n        /* \"#utility.yul\":2689:2695   */\n      dup3\n        /* \"#utility.yul\":2684:2687   */\n      dup3\n        /* \"#utility.yul\":2677:2696   */\n      mstore\n        /* \"#utility.yul\":2729:2733   */\n      0x20\n        /* \"#utility.yul\":2724:2727   */\n      dup3\n        /* \"#utility.yul\":2720:2734   */\n      add\n        /* \"#utility.yul\":2705:2734   */\n      swap1\n      pop\n        /* \"#utility.yul\":2571:2740   */\n      swap3\n      swap2\n      pop\n      pop\n      jump\t// out\n        /* \"#utility.yul\":2746:2971   */\n    tag_106:\n        /* \"#utility.yul\":2886:2920   */\n      0x596f757220617265206e6f7420746865206f776e6572206f662074686520636f\n        /* \"#utility.yul\":2882:2883   */\n      0x00\n        /* \"#utility.yul\":2874:2880   */\n      dup3\n        /* \"#utility.yul\":2870:2884   */\n      add\n        /* \"#utility.yul\":2863:2921   */\n      mstore\n        /* \"#utility.yul\":2955:2963   */\n      0x6e74726163740000000000000000000000000000000000000000000000000000\n        /* \"#utility.yul\":2950:2952   */\n      0x20\n        /* \"#utility.yul\":2942:2948   */\n      dup3\n        /* \"#utility.yul\":2938:2953   */\n      add\n        /* \"#utility.yul\":2931:2964   */\n      mstore\n        /* \"#utility.yul\":2746:2971   */\n      pop\n      jump\t// out\n        /* \"#utility.yul\":2977:3343   */\n    tag_107:\n        /* \"#utility.yul\":3119:3122   */\n      0x00\n        /* \"#utility.yul\":3140:3207   */\n      tag_155\n        /* \"#utility.yul\":3204:3206   */\n      0x26\n        /* \"#utility.yul\":3199:3202   */\n      dup4\n        /* \"#utility.yul\":3140:3207   */\n      tag_105\n      jump\t// in\n    tag_155:\n        /* \"#utility.yul\":3133:3207   */\n      swap2\n      pop\n        /* \"#utility.yul\":3216:3309   */\n      tag_156\n        /* \"#utility.yul\":3305:3308   */\n      dup3\n        /* \"#utility.yul\":3216:3309   */\n      tag_106\n      jump\t// in\n    tag_156:\n        /* \"#utility.yul\":3334:3336   */\n      0x40\n        /* \"#utility.yul\":3329:3332   */\n      dup3\n        /* \"#utility.yul\":3325:3337   */\n      add\n        /* \"#utility.yul\":3318:3337   */\n      swap1\n      pop\n        /* \"#utility.yul\":2977:3343   */\n      swap2\n      swap1\n      pop\n      jump\t// out\n        /* \"#utility.yul\":3349:3768   */\n    tag_38:\n        /* \"#utility.yul\":3515:3519   */\n      0x00\n        /* \"#utility.yul\":3553:3555   */\n      0x20\n        /* \"#utility.yul\":3542:3551   */\n      dup3\n        /* \"#utility.yul\":3538:3556   */\n      add\n        /* \"#utility.yul\":3530:3556   */\n      swap1\n      pop\n        /* \"#utility.yul\":3602:3611   */\n      dup2\n        /* \"#utility.yul\":3596:3600   */\n      dup2\n        /* \"#utility.yul\":3592:3612   */\n      sub\n        /* \"#utility.yul\":3588:3589   */\n      0x00\n        /* \"#utility.yul\":3577:3586   */\n      dup4\n        /* \"#utility.yul\":3573:3590   */\n      add\n        /* \"#utility.yul\":3566:3613   */\n      mstore\n        /* \"#utility.yul\":3630:3761   */\n      tag_158\n        /* \"#utility.yul\":3756:3760   */\n      dup2\n        /* \"#utility.yul\":3630:3761   */\n      tag_107\n      jump\t// in\n    tag_158:\n        /* \"#utility.yul\":3622:3761   */\n      swap1\n      pop\n        /* \"#utility.yul\":3349:3768   */\n      swap2\n      swap1\n      pop\n      jump\t// out\n        /* \"#utility.yul\":3774:3954   */\n    tag_45:\n        /* \"#utility.yul\":3822:3899   */\n      0x4e487b7100000000000000000000000000000000000000000000000000000000\n        /* \"#utility.yul\":3819:3820   */\n      0x00\n        /* \"#utility.yul\":3812:3900   */\n      mstore\n        /* \"#utility.yul\":3919:3923   */\n      0x32\n        /* \"#utility.yul\":3916:3917   */\n      0x04\n        /* \"#utility.yul\":3909:3924   */\n      mstore\n        /* \"#utility.yul\":3943:3947   */\n      0x24\n        /* \"#utility.yul\":3940:3941   */\n      0x00\n        /* \"#utility.yul\":3933:3948   */\n      revert\n        /* \"#utility.yul\":3960:4140   */\n    tag_108:\n        /* \"#utility.yul\":4008:4085   */\n      0x4e487b7100000000000000000000000000000000000000000000000000000000\n        /* \"#utility.yul\":4005:4006   */\n      0x00\n        /* \"#utility.yul\":3998:4086   */\n      mstore\n        /* \"#utility.yul\":4105:4109   */\n      0x11\n        /* \"#utility.yul\":4102:4103   */\n      0x04\n        /* \"#utility.yul\":4095:4110   */\n      mstore\n        /* \"#utility.yul\":4129:4133   */\n      0x24\n        /* \"#utility.yul\":4126:4127   */\n      0x00\n        /* \"#utility.yul\":4119:4134   */\n      revert\n        /* \"#utility.yul\":4146:4379   */\n    tag_48:\n        /* \"#utility.yul\":4185:4188   */\n      0x00\n        /* \"#utility.yul\":4208:4232   */\n      tag_162\n        /* \"#utility.yul\":4226:4231   */\n      dup3\n        /* \"#utility.yul\":4208:4232   */\n      tag_93\n      jump\t// in\n    tag_162:\n        /* \"#utility.yul\":4199:4232   */\n      swap2\n      pop\n        /* \"#utility.yul\":4254:4320   */\n      0xffffffffffffffffffffffffffffffffffffffffffffffffffffffffffffffff\n        /* \"#utility.yul\":4247:4252   */\n      dup3\n        /* \"#utility.yul\":4244:4321   */\n      sub\n        /* \"#utility.yul\":4241:4344   */\n      tag_163\n      jumpi\n        /* \"#utility.yul\":4324:4342   */\n      tag_164\n      tag_108\n      jump\t// in\n    tag_164:\n        /* \"#utility.yul\":4241:4344   */\n    tag_163:\n        /* \"#utility.yul\":4371:4372   */\n      0x01\n        /* \"#utility.yul\":4364:4369   */\n      dup3\n        /* \"#utility.yul\":4360:4373   */\n      add\n        /* \"#utility.yul\":4353:4373   */\n      swap1\n      pop\n        /* \"#utility.yul\":4146:4379   */\n      swap2\n      swap1\n      pop\n      jump\t// out\n        /* \"#utility.yul\":4385:4565   */\n    tag_51:\n        /* \"#utility.yul\":4433:4510   */\n      0x4e487b7100000000000000000000000000000000000000000000000000000000\n        /* \"#utility.yul\":4430:4431   */\n      0x00\n        /* \"#utility.yul\":4423:4511   */\n      mstore\n        /* \"#utility.yul\":4530:4534   */\n      0x41\n        /* \"#utility.yul\":4527:4528   */\n      0x04\n        /* \"#utility.yul\":4520:4535   */\n      mstore\n        /* \"#utility.yul\":4554:4558   */\n      0x24\n        /* \"#utility.yul\":4551:4552   */\n      0x00\n        /* \"#utility.yul\":4544:4559   */\n      revert\n        /* \"#utility.yul\":4571:4718   */\n    tag_109:\n        /* \"#utility.yul\":4672:4683   */\n      0x00\n        /* \"#utility.yul\":4709:4712   */\n      dup2\n        /* \"#utility.yul\":4694:4712   */\n      swap1\n      pop\n        /* \"#utility.yul\":4571:4718   */\n      swap3\n      swap2\n      pop\n      pop\n      jump\t// out\n        /* \"#utility.yul\":4724:4838   */\n    tag_110:\n      pop\n      jump\t// out\n        /* \"#utility.yul\":4844:5242   */\n    tag_111:\n        /* \"#utility.yul\":5003:5006   */\n      0x00\n        /* \"#utility.yul\":5024:5107   */\n      tag_169\n        /* \"#utility.yul\":5105:5106   */\n      0x00\n        /* \"#utility.yul\":5100:5103   */\n      dup4\n        /* \"#utility.yul\":5024:5107   */\n      tag_109\n      jump\t// in\n    tag_169:\n        /* \"#utility.yul\":5017:5107   */\n      swap2\n      pop\n        /* \"#utility.yul\":5116:5209   */\n      tag_170\n        /* \"#utility.yul\":5205:5208   */\n      dup3\n        /* \"#utility.yul\":5116:5209   */\n      tag_110\n      jump\t// in\n    tag_170:\n        /* \"#utility.yul\":5234:5235   */\n      0x00\n        /* \"#utility.yul\":5229:5232   */\n      dup3\n        /* \"#utility.yul\":5225:5236   */\n      add\n        /* \"#utility.yul\":5218:5236   */\n      swap1\n      pop\n        /* \"#utility.yul\":4844:5242   */\n      swap2\n      swap1\n      pop\n      jump\t// out\n        /* \"#utility.yul\":5248:5627   */\n    tag_56:\n        /* \"#utility.yul\":5432:5435   */\n      0x00\n        /* \"#utility.yul\":5454:5601   */\n      tag_172\n        /* \"#utility.yul\":5597:5600   */\n      dup3\n        /* \"#utility.yul\":5454:5601   */\n      tag_111\n      jump\t// in\n    tag_172:\n        /* \"#utility.yul\":5447:5601   */\n      swap2\n      pop\n        /* \"#utility.yul\":5618:5621   */\n      dup2\n        /* \"#utility.yul\":5611:5621   */\n      swap1\n      pop\n        /* \"#utility.yul\":5248:5627   */\n      swap2\n      swap1\n      pop\n      jump\t// out\n        /* \"#utility.yul\":5633:5794   */\n    tag_112:\n        /* \"#utility.yul\":5773:5786   */\n      0x43616c6c206661696c6564000000000000000000000000000000000000000000\n        /* \"#utility.yul\":5769:5770   */\n      0x00\n        /* \"#utility.yul\":5761:5767   */\n      dup3\n        /* \"#utility.yul\":5757:5771   */\n      add\n        /* \"#utility.yul\":5750:5787   */\n      mstore\n        /* \"#utility.yul\":5633:5794   */\n      pop\n      jump\t// out\n        /* \"#utility.yul\":5800:6166   */\n    tag_113:\n        /* \"#utility.yul\":5942:5945   */\n      0x00\n        /* \"#utility.yul\":5963:6030   */\n      tag_175\n        /* \"#utility.yul\":6027:6029   */\n      0x0b\n        /* \"#utility.yul\":6022:6025   */\n      dup4\n        /* \"#utility.yul\":5963:6030   */\n      tag_105\n      jump\t// in\n    tag_175:\n        /* \"#utility.yul\":5956:6030   */\n      swap2\n      pop\n        /* \"#utility.yul\":6039:6132   */\n      tag_176\n        /* \"#utility.yul\":6128:6131   */\n      dup3\n        /* \"#utility.yul\":6039:6132   */\n      tag_112\n      jump\t// in\n    tag_176:\n        /* \"#utility.yul\":6157:6159   */\n      0x20\n        /* \"#utility.yul\":6152:6155   */\n      dup3\n        /* \"#utility.yul\":6148:6160   */\n      add\n        /* \"#utility.yul\":6141:6160   */\n      swap1\n      pop\n        /* \"#utility.yul\":5800:6166   */\n      swap2\n      swap1\n      pop\n      jump\t// out\n        /* \"#utility.yul\":6172:6591   */\n    tag_62:\n        /* \"#utility.yul\":6338:6342   */\n      0x00\n        /* \"#utility.yul\":6376:6378   */\n      0x20\n        /* \"#utility.yul\":6365:6374   */\n      dup3\n        /* \"#utility.yul\":6361:6379   */\n      add\n        /* \"#utility.yul\":6353:6379   */\n      swap1\n      pop\n        /* \"#utility.yul\":6425:6434   */\n      dup2\n        /* \"#utility.yul\":6419:6423   */\n      dup2\n        /* \"#utility.yul\":6415:6435   */\n      sub\n        /* \"#utility.yul\":6411:6412   */\n      0x00\n        /* \"#utility.yul\":6400:6409   */\n      dup4\n        /* \"#utility.yul\":6396:6413   */\n      add\n        /* \"#utility.yul\":6389:6436   */\n      mstore\n        /* \"#utility.yul\":6453:6584   */\n      tag_178\n        /* \"#utility.yul\":6579:6583   */\n      dup2\n        /* \"#utility.yul\":6453:6584   */\n      tag_113\n      jump\t// in\n    tag_178:\n        /* \"#utility.yul\":6445:6584   */\n      swap1\n      pop\n        /* \"#utility.yul\":6172:6591   */\n      swap2\n      swap1\n      pop\n      jump\t// out\n        /* \"#utility.yul\":6597:6766   */\n    tag_114:\n        /* \"#utility.yul\":6737:6758   */\n      0x4469646e27742073656e6420656e6f7567682100000000000000000000000000\n        /* \"#utility.yul\":6733:6734   */\n      0x00\n        /* \"#utility.yul\":6725:6731   */\n      dup3\n        /* \"#utility.yul\":6721:6735   */\n      add\n        /* \"#utility.yul\":6714:6759   */\n      mstore\n        /* \"#utility.yul\":6597:6766   */\n      pop\n      jump\t// out\n        /* \"#utility.yul\":6772:7138   */\n    tag_115:\n        /* \"#utility.yul\":6914:6917   */\n      0x00\n        /* \"#utility.yul\":6935:7002   */\n      tag_181\n        /* \"#utility.yul\":6999:7001   */\n      0x13\n        /* \"#utility.yul\":6994:6997   */\n      dup4\n        /* \"#utility.yul\":6935:7002   */\n      tag_105\n      jump\t// in\n    tag_181:\n        /* \"#utility.yul\":6928:7002   */\n      swap2\n      pop\n        /* \"#utility.yul\":7011:7104   */\n      tag_182\n        /* \"#utility.yul\":7100:7103   */\n      dup3\n        /* \"#utility.yul\":7011:7104   */\n      tag_114\n      jump\t// in\n    tag_182:\n        /* \"#utility.yul\":7129:7131   */\n      0x20\n        /* \"#utility.yul\":7124:7127   */\n      dup3\n        /* \"#utility.yul\":7120:7132   */\n      add\n        /* \"#utility.yul\":7113:7132   */\n      swap1\n      pop\n        /* \"#utility.yul\":6772:7138   */\n      swap2\n      swap1\n      pop\n      jump\t// out\n        /* \"#utility.yul\":7144:7563   */\n    tag_68:\n        /* \"#utility.yul\":7310:7314   */\n      0x00\n        /* \"#utility.yul\":7348:7350   */\n      0x20\n        /* \"#utility.yul\":7337:7346   */\n      dup3\n        /* \"#utility.yul\":7333:7351   */\n      add\n        /* \"#utility.yul\":7325:7351   */\n      swap1\n      pop\n        /* \"#utility.yul\":7397:7406   */\n      dup2\n        /* \"#utility.yul\":7391:7395   */\n      dup2\n        /* \"#utility.yul\":7387:7407   */\n      sub\n        /* \"#utility.yul\":7383:7384   */\n      0x00\n        /* \"#utility.yul\":7372:7381   */\n      dup4\n        /* \"#utility.yul\":7368:7385   */\n      add\n        /* \"#utility.yul\":7361:7408   */\n      mstore\n        /* \"#utility.yul\":7425:7556   */\n      tag_184\n        /* \"#utility.yul\":7551:7555   */\n      dup2\n        /* \"#utility.yul\":7425:7556   */\n      tag_115\n      jump\t// in\n    tag_184:\n        /* \"#utility.yul\":7417:7556   */\n      swap1\n      pop\n        /* \"#utility.yul\":7144:7563   */\n      swap2\n      swap1\n      pop\n      jump\t// out\n        /* \"#utility.yul\":7569:7760   */\n    tag_71:\n        /* \"#utility.yul\":7609:7612   */\n      0x00\n        /* \"#utility.yul\":7628:7648   */\n      tag_186\n        /* \"#utility.yul\":7646:7647   */\n      dup3\n        /* \"#utility.yul\":7628:7648   */\n      tag_93\n      jump\t// in\n    tag_186:\n        /* \"#utility.yul\":7623:7648   */\n      swap2\n      pop\n        /* \"#utility.yul\":7662:7682   */\n      tag_187\n        /* \"#utility.yul\":7680:7681   */\n      dup4\n        /* \"#utility.yul\":7662:7682   */\n      tag_93\n      jump\t// in\n    tag_187:\n        /* \"#utility.yul\":7657:7682   */\n      swap3\n      pop\n        /* \"#utility.yul\":7705:7706   */\n      dup3\n        /* \"#utility.yul\":7702:7703   */\n      dup3\n        /* \"#utility.yul\":7698:7707   */\n      add\n        /* \"#utility.yul\":7691:7707   */\n      swap1\n      pop\n        /* \"#utility.yul\":7726:7729   */\n      dup1\n        /* \"#utility.yul\":7723:7724   */\n      dup3\n        /* \"#utility.yul\":7720:7730   */\n      gt\n        /* \"#utility.yul\":7717:7753   */\n      iszero\n      tag_188\n      jumpi\n        /* \"#utility.yul\":7733:7751   */\n      tag_189\n      tag_108\n      jump\t// in\n    tag_189:\n        /* \"#utility.yul\":7717:7753   */\n    tag_188:\n        /* \"#utility.yul\":7569:7760   */\n      swap3\n      swap2\n      pop\n      pop\n      jump\t// out\n        /* \"#utility.yul\":7766:8114   */\n    tag_78:\n        /* \"#utility.yul\":7806:7813   */\n      0x00\n        /* \"#utility.yul\":7829:7849   */\n      tag_191\n        /* \"#utility.yul\":7847:7848   */\n      dup3\n        /* \"#utility.yul\":7829:7849   */\n      tag_93\n      jump\t// in\n    tag_191:\n        /* \"#utility.yul\":7824:7849   */\n      swap2\n      pop\n        /* \"#utility.yul\":7863:7883   */\n      tag_192\n        /* \"#utility.yul\":7881:7882   */\n      dup4\n        /* \"#utility.yul\":7863:7883   */\n      tag_93\n      jump\t// in\n    tag_192:\n        /* \"#utility.yul\":7858:7883   */\n      swap3\n      pop\n        /* \"#utility.yul\":8051:8052   */\n      dup2\n        /* \"#utility.yul\":7983:8049   */\n      0xffffffffffffffffffffffffffffffffffffffffffffffffffffffffffffffff\n        /* \"#utility.yul\":7979:8053   */\n      div\n        /* \"#utility.yul\":7976:7977   */\n      dup4\n        /* \"#utility.yul\":7973:8054   */\n      gt\n        /* \"#utility.yul\":7968:7969   */\n      dup3\n        /* \"#utility.yul\":7961:7970   */\n      iszero\n        /* \"#utility.yul\":7954:7971   */\n      iszero\n        /* \"#utility.yul\":7950:8055   */\n      and\n        /* \"#utility.yul\":7947:8078   */\n      iszero\n      tag_193\n      jumpi\n        /* \"#utility.yul\":8058:8076   */\n      tag_194\n      tag_108\n      jump\t// in\n    tag_194:\n        /* \"#utility.yul\":7947:8078   */\n    tag_193:\n        /* \"#utility.yul\":8106:8107   */\n      dup3\n        /* \"#utility.yul\":8103:8104   */\n      dup3\n        /* \"#utility.yul\":8099:8108   */\n      mul\n        /* \"#utility.yul\":8088:8108   */\n      swap1\n      pop\n        /* \"#utility.yul\":7766:8114   */\n      swap3\n      swap2\n      pop\n      pop\n      jump\t// out\n        /* \"#utility.yul\":8120:8300   */\n    tag_116:\n        /* \"#utility.yul\":8168:8245   */\n      0x4e487b7100000000000000000000000000000000000000000000000000000000\n        /* \"#utility.yul\":8165:8166   */\n      0x00\n        /* \"#utility.yul\":8158:8246   */\n      mstore\n        /* \"#utility.yul\":8265:8269   */\n      0x12\n        /* \"#utility.yul\":8262:8263   */\n      0x04\n        /* \"#utility.yul\":8255:8270   */\n      mstore\n        /* \"#utility.yul\":8289:8293   */\n      0x24\n        /* \"#utility.yul\":8286:8287   */\n      0x00\n        /* \"#utility.yul\":8279:8294   */\n      revert\n        /* \"#utility.yul\":8306:8491   */\n    tag_80:\n        /* \"#utility.yul\":8346:8347   */\n      0x00\n        /* \"#utility.yul\":8363:8383   */\n      tag_197\n        /* \"#utility.yul\":8381:8382   */\n      dup3\n        /* \"#utility.yul\":8363:8383   */\n      tag_93\n      jump\t// in\n    tag_197:\n        /* \"#utility.yul\":8358:8383   */\n      swap2\n      pop\n        /* \"#utility.yul\":8397:8417   */\n      tag_198\n        /* \"#utility.yul\":8415:8416   */\n      dup4\n        /* \"#utility.yul\":8397:8417   */\n      tag_93\n      jump\t// in\n    tag_198:\n        /* \"#utility.yul\":8392:8417   */\n      swap3\n      pop\n        /* \"#utility.yul\":8436:8437   */\n      dup3\n        /* \"#utility.yul\":8426:8461   */\n      tag_199\n      jumpi\n        /* \"#utility.yul\":8441:8459   */\n      tag_200\n      tag_116\n      jump\t// in\n    tag_200:\n        /* \"#utility.yul\":8426:8461   */\n    tag_199:\n        /* \"#utility.yul\":8483:8484   */\n      dup3\n        /* \"#utility.yul\":8480:8481   */\n      dup3\n        /* \"#utility.yul\":8476:8485   */\n      div\n        /* \"#utility.yul\":8471:8485   */\n      swap1\n      pop\n        /* \"#utility.yul\":8306:8491   */\n      swap3\n      swap2\n      pop\n      pop\n      jump\t// out\n        /* \"#utility.yul\":8497:8640   */\n    tag_117:\n        /* \"#utility.yul\":8554:8559   */\n      0x00\n        /* \"#utility.yul\":8585:8591   */\n      dup2\n        /* \"#utility.yul\":8579:8592   */\n      mload\n        /* \"#utility.yul\":8570:8592   */\n      swap1\n      pop\n        /* \"#utility.yul\":8601:8634   */\n      tag_202\n        /* \"#utility.yul\":8628:8633   */\n      dup2\n        /* \"#utility.yul\":8601:8634   */\n      tag_103\n      jump\t// in\n    tag_202:\n        /* \"#utility.yul\":8497:8640   */\n      swap3\n      swap2\n      pop\n      pop\n      jump\t// out\n        /* \"#utility.yul\":8646:8997   */\n    tag_85:\n        /* \"#utility.yul\":8716:8722   */\n      0x00\n        /* \"#utility.yul\":8765:8767   */\n      0x20\n        /* \"#utility.yul\":8753:8762   */\n      dup3\n        /* \"#utility.yul\":8744:8751   */\n      dup5\n        /* \"#utility.yul\":8740:8763   */\n      sub\n        /* \"#utility.yul\":8736:8768   */\n      slt\n        /* \"#utility.yul\":8733:8852   */\n      iszero\n      tag_204\n      jumpi\n        /* \"#utility.yul\":8771:8850   */\n      tag_205\n      tag_96\n      jump\t// in\n    tag_205:\n        /* \"#utility.yul\":8733:8852   */\n    tag_204:\n        /* \"#utility.yul\":8891:8892   */\n      0x00\n        /* \"#utility.yul\":8916:8980   */\n      tag_206\n        /* \"#utility.yul\":8972:8979   */\n      dup5\n        /* \"#utility.yul\":8963:8969   */\n      dup3\n        /* \"#utility.yul\":8952:8961   */\n      dup6\n        /* \"#utility.yul\":8948:8970   */\n      add\n        /* \"#utility.yul\":8916:8980   */\n      tag_117\n      jump\t// in\n    tag_206:\n        /* \"#utility.yul\":8906:8980   */\n      swap2\n      pop\n        /* \"#utility.yul\":8862:8990   */\n      pop\n        /* \"#utility.yul\":8646:8997   */\n      swap3\n      swap2\n      pop\n      pop\n      jump\t// out\n\n    auxdata: 0xa2646970667358221220de8dc3f52cc37c07e977bdb7edb19b01c61c9bc5833f07ebc0230b59d30a69fe64736f6c63430008100033\n}\n",
				"bytecode": {
					"linkReferences": {},
					"object": "60806040526802b5e3af16b188000060005534801561001d57600080fd5b5033600360006101000a81548173ffffffffffffffffffffffffffffffffffffffff021916908373ffffffffffffffffffffffffffffffffffffffff160217905550610bd58061006e6000396000f3fe6080604052600436106100555760003560e01c8063098de8201461005a5780633ccfd60b146100855780633e47d6f31461009c5780638da5cb5b146100d9578063b60d428814610104578063dc0d3dff1461010e575b600080fd5b34801561006657600080fd5b5061006f61014b565b60405161007c91906106ab565b60405180910390f35b34801561009157600080fd5b5061009a610151565b005b3480156100a857600080fd5b506100c360048036038101906100be9190610729565b61039d565b6040516100d091906106ab565b60405180910390f35b3480156100e557600080fd5b506100ee6103b5565b6040516100fb9190610765565b60405180910390f35b61010c6103db565b005b34801561011a57600080fd5b50610135600480360381019061013091906107ac565b6104e3565b6040516101429190610765565b60405180910390f35b60005481565b600360009054906101000a900473ffffffffffffffffffffffffffffffffffffffff1673ffffffffffffffffffffffffffffffffffffffff163373ffffffffffffffffffffffffffffffffffffffff16146101e1576040517f08c379a00000000000000000000000000000000000000000000000000000000081526004016101d89061085c565b60405180910390fd5b60005b60018054905081101561028d576000600182815481106102075761020661087c565b5b9060005260206000200160009054906101000a900473ffffffffffffffffffffffffffffffffffffffff1690506000600260008373ffffffffffffffffffffffffffffffffffffffff1673ffffffffffffffffffffffffffffffffffffffff16815260200190815260200160002081905550508080610285906108da565b9150506101e4565b50600067ffffffffffffffff8111156102a9576102a8610922565b5b6040519080825280602002602001820160405280156102d75781602001602082028036833780820191505090505b50600190805190602001906102ed9291906105eb565b5060003373ffffffffffffffffffffffffffffffffffffffff164760405161031490610982565b60006040518083038185875af1925050503d8060008114610351576040519150601f19603f3d011682016040523d82523d6000602084013e610356565b606091505b505090508061039a576040517f08c379a0000000000000000000000000000000000000000000000000000000008152600401610391906109e3565b60405180910390fd5b50565b60026020528060005260406000206000915090505481565b600360009054906101000a900473ffffffffffffffffffffffffffffffffffffffff1681565b6000546103e734610522565b1015610428576040517f08c379a000000000000000000000000000000000000000000000000000000000815260040161041f90610a4f565b60405180910390fd5b6001339080600181540180825580915050600190039060005260206000200160009091909190916101000a81548173ffffffffffffffffffffffffffffffffffffffff021916908373ffffffffffffffffffffffffffffffffffffffff16021790555034600260003373ffffffffffffffffffffffffffffffffffffffff1673ffffffffffffffffffffffffffffffffffffffff16815260200190815260200160002060008282546104da9190610a6f565b92505081905550565b600181815481106104f357600080fd5b906000526020600020016000915054906101000a900473ffffffffffffffffffffffffffffffffffffffff1681565b60008061052d61055c565b90506000670de0b6b3a764000082856105469190610aa3565b6105509190610b2c565b90508092505050919050565b60008073d4a33860578de61dbabdc8bfdb98fd742fa7028e90508073ffffffffffffffffffffffffffffffffffffffff166354fd4d506040518163ffffffff1660e01b8152600401602060405180830381865afa1580156105c1573d6000803e3d6000fd5b505050506040513d601f19601f820116820180604052508101906105e59190610b72565b91505090565b828054828255906000526020600020908101928215610664579160200282015b828111156106635782518260006101000a81548173ffffffffffffffffffffffffffffffffffffffff021916908373ffffffffffffffffffffffffffffffffffffffff1602179055509160200191906001019061060b565b5b5090506106719190610675565b5090565b5b8082111561068e576000816000905550600101610676565b5090565b6000819050919050565b6106a581610692565b82525050565b60006020820190506106c0600083018461069c565b92915050565b600080fd5b600073ffffffffffffffffffffffffffffffffffffffff82169050919050565b60006106f6826106cb565b9050919050565b610706816106eb565b811461071157600080fd5b50565b600081359050610723816106fd565b92915050565b60006020828403121561073f5761073e6106c6565b5b600061074d84828501610714565b91505092915050565b61075f816106eb565b82525050565b600060208201905061077a6000830184610756565b92915050565b61078981610692565b811461079457600080fd5b50565b6000813590506107a681610780565b92915050565b6000602082840312156107c2576107c16106c6565b5b60006107d084828501610797565b91505092915050565b600082825260208201905092915050565b7f596f757220617265206e6f7420746865206f776e6572206f662074686520636f60008201527f6e74726163740000000000000000000000000000000000000000000000000000602082015250565b60006108466026836107d9565b9150610851826107ea565b604082019050919050565b6000602082019050818103600083015261087581610839565b9050919050565b7f4e487b7100000000000000000000000000000000000000000000000000000000600052603260045260246000fd5b7f4e487b7100000000000000000000000000000000000000000000000000000000600052601160045260246000fd5b60006108e582610692565b91507fffffffffffffffffffffffffffffffffffffffffffffffffffffffffffffffff8203610917576109166108ab565b5b600182019050919050565b7f4e487b7100000000000000000000000000000000000000000000000000000000600052604160045260246000fd5b600081905092915050565b50565b600061096c600083610951565b91506109778261095c565b600082019050919050565b600061098d8261095f565b9150819050919050565b7f43616c6c206661696c6564000000000000000000000000000000000000000000600082015250565b60006109cd600b836107d9565b91506109d882610997565b602082019050919050565b600060208201905081810360008301526109fc816109c0565b9050919050565b7f4469646e27742073656e6420656e6f7567682100000000000000000000000000600082015250565b6000610a396013836107d9565b9150610a4482610a03565b602082019050919050565b60006020820190508181036000830152610a6881610a2c565b9050919050565b6000610a7a82610692565b9150610a8583610692565b9250828201905080821115610a9d57610a9c6108ab565b5b92915050565b6000610aae82610692565b9150610ab983610692565b9250817fffffffffffffffffffffffffffffffffffffffffffffffffffffffffffffffff0483118215151615610af257610af16108ab565b5b828202905092915050565b7f4e487b7100000000000000000000000000000000000000000000000000000000600052601260045260246000fd5b6000610b3782610692565b9150610b4283610692565b925082610b5257610b51610afd565b5b828204905092915050565b600081519050610b6c81610780565b92915050565b600060208284031215610b8857610b876106c6565b5b6000610b9684828501610b5d565b9150509291505056fea2646970667358221220de8dc3f52cc37c07e977bdb7edb19b01c61c9bc5833f07ebc0230b59d30a69fe64736f6c63430008100033",
					"opcodes": "PUSH1 0x80 PUSH1 0x40 MSTORE PUSH9 0x2B5E3AF16B1880000 PUSH1 0x0 SSTORE CALLVALUE DUP1 ISZERO PUSH2 0x1D JUMPI PUSH1 0x0 DUP1 REVERT JUMPDEST POP CALLER PUSH1 0x3 PUSH1 0x0 PUSH2 0x100 EXP DUP2 SLOAD DUP2 PUSH20 0xFFFFFFFFFFFFFFFFFFFFFFFFFFFFFFFFFFFFFFFF MUL NOT AND SWAP1 DUP4 PUSH20 0xFFFFFFFFFFFFFFFFFFFFFFFFFFFFFFFFFFFFFFFF AND MUL OR SWAP1 SSTORE POP PUSH2 0xBD5 DUP1 PUSH2 0x6E PUSH1 0x0 CODECOPY PUSH1 0x0 RETURN INVALID PUSH1 0x80 PUSH1 0x40 MSTORE PUSH1 0x4 CALLDATASIZE LT PUSH2 0x55 JUMPI PUSH1 0x0 CALLDATALOAD PUSH1 0xE0 SHR DUP1 PUSH4 0x98DE820 EQ PUSH2 0x5A JUMPI DUP1 PUSH4 0x3CCFD60B EQ PUSH2 0x85 JUMPI DUP1 PUSH4 0x3E47D6F3 EQ PUSH2 0x9C JUMPI DUP1 PUSH4 0x8DA5CB5B EQ PUSH2 0xD9 JUMPI DUP1 PUSH4 0xB60D4288 EQ PUSH2 0x104 JUMPI DUP1 PUSH4 0xDC0D3DFF EQ PUSH2 0x10E JUMPI JUMPDEST PUSH1 0x0 DUP1 REVERT JUMPDEST CALLVALUE DUP1 ISZERO PUSH2 0x66 JUMPI PUSH1 0x0 DUP1 REVERT JUMPDEST POP PUSH2 0x6F PUSH2 0x14B JUMP JUMPDEST PUSH1 0x40 MLOAD PUSH2 0x7C SWAP2 SWAP1 PUSH2 0x6AB JUMP JUMPDEST PUSH1 0x40 MLOAD DUP1 SWAP2 SUB SWAP1 RETURN JUMPDEST CALLVALUE DUP1 ISZERO PUSH2 0x91 JUMPI PUSH1 0x0 DUP1 REVERT JUMPDEST POP PUSH2 0x9A PUSH2 0x151 JUMP JUMPDEST STOP JUMPDEST CALLVALUE DUP1 ISZERO PUSH2 0xA8 JUMPI PUSH1 0x0 DUP1 REVERT JUMPDEST POP PUSH2 0xC3 PUSH1 0x4 DUP1 CALLDATASIZE SUB DUP2 ADD SWAP1 PUSH2 0xBE SWAP2 SWAP1 PUSH2 0x729 JUMP JUMPDEST PUSH2 0x39D JUMP JUMPDEST PUSH1 0x40 MLOAD PUSH2 0xD0 SWAP2 SWAP1 PUSH2 0x6AB JUMP JUMPDEST PUSH1 0x40 MLOAD DUP1 SWAP2 SUB SWAP1 RETURN JUMPDEST CALLVALUE DUP1 ISZERO PUSH2 0xE5 JUMPI PUSH1 0x0 DUP1 REVERT JUMPDEST POP PUSH2 0xEE PUSH2 0x3B5 JUMP JUMPDEST PUSH1 0x40 MLOAD PUSH2 0xFB SWAP2 SWAP1 PUSH2 0x765 JUMP JUMPDEST PUSH1 0x40 MLOAD DUP1 SWAP2 SUB SWAP1 RETURN JUMPDEST PUSH2 0x10C PUSH2 0x3DB JUMP JUMPDEST STOP JUMPDEST CALLVALUE DUP1 ISZERO PUSH2 0x11A JUMPI PUSH1 0x0 DUP1 REVERT JUMPDEST POP PUSH2 0x135 PUSH1 0x4 DUP1 CALLDATASIZE SUB DUP2 ADD SWAP1 PUSH2 0x130 SWAP2 SWAP1 PUSH2 0x7AC JUMP JUMPDEST PUSH2 0x4E3 JUMP JUMPDEST PUSH1 0x40 MLOAD PUSH2 0x142 SWAP2 SWAP1 PUSH2 0x765 JUMP JUMPDEST PUSH1 0x40 MLOAD DUP1 SWAP2 SUB SWAP1 RETURN JUMPDEST PUSH1 0x0 SLOAD DUP2 JUMP JUMPDEST PUSH1 0x3 PUSH1 0x0 SWAP1 SLOAD SWAP1 PUSH2 0x100 EXP SWAP1 DIV PUSH20 0xFFFFFFFFFFFFFFFFFFFFFFFFFFFFFFFFFFFFFFFF AND PUSH20 0xFFFFFFFFFFFFFFFFFFFFFFFFFFFFFFFFFFFFFFFF AND CALLER PUSH20 0xFFFFFFFFFFFFFFFFFFFFFFFFFFFFFFFFFFFFFFFF AND EQ PUSH2 0x1E1 JUMPI PUSH1 0x40 MLOAD PUSH32 0x8C379A000000000000000000000000000000000000000000000000000000000 DUP2 MSTORE PUSH1 0x4 ADD PUSH2 0x1D8 SWAP1 PUSH2 0x85C JUMP JUMPDEST PUSH1 0x40 MLOAD DUP1 SWAP2 SUB SWAP1 REVERT JUMPDEST PUSH1 0x0 JUMPDEST PUSH1 0x1 DUP1 SLOAD SWAP1 POP DUP2 LT ISZERO PUSH2 0x28D JUMPI PUSH1 0x0 PUSH1 0x1 DUP3 DUP2 SLOAD DUP2 LT PUSH2 0x207 JUMPI PUSH2 0x206 PUSH2 0x87C JUMP JUMPDEST JUMPDEST SWAP1 PUSH1 0x0 MSTORE PUSH1 0x20 PUSH1 0x0 KECCAK256 ADD PUSH1 0x0 SWAP1 SLOAD SWAP1 PUSH2 0x100 EXP SWAP1 DIV PUSH20 0xFFFFFFFFFFFFFFFFFFFFFFFFFFFFFFFFFFFFFFFF AND SWAP1 POP PUSH1 0x0 PUSH1 0x2 PUSH1 0x0 DUP4 PUSH20 0xFFFFFFFFFFFFFFFFFFFFFFFFFFFFFFFFFFFFFFFF AND PUSH20 0xFFFFFFFFFFFFFFFFFFFFFFFFFFFFFFFFFFFFFFFF AND DUP2 MSTORE PUSH1 0x20 ADD SWAP1 DUP2 MSTORE PUSH1 0x20 ADD PUSH1 0x0 KECCAK256 DUP2 SWAP1 SSTORE POP POP DUP1 DUP1 PUSH2 0x285 SWAP1 PUSH2 0x8DA JUMP JUMPDEST SWAP2 POP POP PUSH2 0x1E4 JUMP JUMPDEST POP PUSH1 0x0 PUSH8 0xFFFFFFFFFFFFFFFF DUP2 GT ISZERO PUSH2 0x2A9 JUMPI PUSH2 0x2A8 PUSH2 0x922 JUMP JUMPDEST JUMPDEST PUSH1 0x40 MLOAD SWAP1 DUP1 DUP3 MSTORE DUP1 PUSH1 0x20 MUL PUSH1 0x20 ADD DUP3 ADD PUSH1 0x40 MSTORE DUP1 ISZERO PUSH2 0x2D7 JUMPI DUP2 PUSH1 0x20 ADD PUSH1 0x20 DUP3 MUL DUP1 CALLDATASIZE DUP4 CALLDATACOPY DUP1 DUP3 ADD SWAP2 POP POP SWAP1 POP JUMPDEST POP PUSH1 0x1 SWAP1 DUP1 MLOAD SWAP1 PUSH1 0x20 ADD SWAP1 PUSH2 0x2ED SWAP3 SWAP2 SWAP1 PUSH2 0x5EB JUMP JUMPDEST POP PUSH1 0x0 CALLER PUSH20 0xFFFFFFFFFFFFFFFFFFFFFFFFFFFFFFFFFFFFFFFF AND SELFBALANCE PUSH1 0x40 MLOAD PUSH2 0x314 SWAP1 PUSH2 0x982 JUMP JUMPDEST PUSH1 0x0 PUSH1 0x40 MLOAD DUP1 DUP4 SUB DUP2 DUP6 DUP8 GAS CALL SWAP3 POP POP POP RETURNDATASIZE DUP1 PUSH1 0x0 DUP2 EQ PUSH2 0x351 JUMPI PUSH1 0x40 MLOAD SWAP2 POP PUSH1 0x1F NOT PUSH1 0x3F RETURNDATASIZE ADD AND DUP3 ADD PUSH1 0x40 MSTORE RETURNDATASIZE DUP3 MSTORE RETURNDATASIZE PUSH1 0x0 PUSH1 0x20 DUP5 ADD RETURNDATACOPY PUSH2 0x356 JUMP JUMPDEST PUSH1 0x60 SWAP2 POP JUMPDEST POP POP SWAP1 POP DUP1 PUSH2 0x39A JUMPI PUSH1 0x40 MLOAD PUSH32 0x8C379A000000000000000000000000000000000000000000000000000000000 DUP2 MSTORE PUSH1 0x4 ADD PUSH2 0x391 SWAP1 PUSH2 0x9E3 JUMP JUMPDEST PUSH1 0x40 MLOAD DUP1 SWAP2 SUB SWAP1 REVERT JUMPDEST POP JUMP JUMPDEST PUSH1 0x2 PUSH1 0x20 MSTORE DUP1 PUSH1 0x0 MSTORE PUSH1 0x40 PUSH1 0x0 KECCAK256 PUSH1 0x0 SWAP2 POP SWAP1 POP SLOAD DUP2 JUMP JUMPDEST PUSH1 0x3 PUSH1 0x0 SWAP1 SLOAD SWAP1 PUSH2 0x100 EXP SWAP1 DIV PUSH20 0xFFFFFFFFFFFFFFFFFFFFFFFFFFFFFFFFFFFFFFFF AND DUP2 JUMP JUMPDEST PUSH1 0x0 SLOAD PUSH2 0x3E7 CALLVALUE PUSH2 0x522 JUMP JUMPDEST LT ISZERO PUSH2 0x428 JUMPI PUSH1 0x40 MLOAD PUSH32 0x8C379A000000000000000000000000000000000000000000000000000000000 DUP2 MSTORE PUSH1 0x4 ADD PUSH2 0x41F SWAP1 PUSH2 0xA4F JUMP JUMPDEST PUSH1 0x40 MLOAD DUP1 SWAP2 SUB SWAP1 REVERT JUMPDEST PUSH1 0x1 CALLER SWAP1 DUP1 PUSH1 0x1 DUP2 SLOAD ADD DUP1 DUP3 SSTORE DUP1 SWAP2 POP POP PUSH1 0x1 SWAP1 SUB SWAP1 PUSH1 0x0 MSTORE PUSH1 0x20 PUSH1 0x0 KECCAK256 ADD PUSH1 0x0 SWAP1 SWAP2 SWAP1 SWAP2 SWAP1 SWAP2 PUSH2 0x100 EXP DUP2 SLOAD DUP2 PUSH20 0xFFFFFFFFFFFFFFFFFFFFFFFFFFFFFFFFFFFFFFFF MUL NOT AND SWAP1 DUP4 PUSH20 0xFFFFFFFFFFFFFFFFFFFFFFFFFFFFFFFFFFFFFFFF AND MUL OR SWAP1 SSTORE POP CALLVALUE PUSH1 0x2 PUSH1 0x0 CALLER PUSH20 0xFFFFFFFFFFFFFFFFFFFFFFFFFFFFFFFFFFFFFFFF AND PUSH20 0xFFFFFFFFFFFFFFFFFFFFFFFFFFFFFFFFFFFFFFFF AND DUP2 MSTORE PUSH1 0x20 ADD SWAP1 DUP2 MSTORE PUSH1 0x20 ADD PUSH1 0x0 KECCAK256 PUSH1 0x0 DUP3 DUP3 SLOAD PUSH2 0x4DA SWAP2 SWAP1 PUSH2 0xA6F JUMP JUMPDEST SWAP3 POP POP DUP2 SWAP1 SSTORE POP JUMP JUMPDEST PUSH1 0x1 DUP2 DUP2 SLOAD DUP2 LT PUSH2 0x4F3 JUMPI PUSH1 0x0 DUP1 REVERT JUMPDEST SWAP1 PUSH1 0x0 MSTORE PUSH1 0x20 PUSH1 0x0 KECCAK256 ADD PUSH1 0x0 SWAP2 POP SLOAD SWAP1 PUSH2 0x100 EXP SWAP1 DIV PUSH20 0xFFFFFFFFFFFFFFFFFFFFFFFFFFFFFFFFFFFFFFFF AND DUP2 JUMP JUMPDEST PUSH1 0x0 DUP1 PUSH2 0x52D PUSH2 0x55C JUMP JUMPDEST SWAP1 POP PUSH1 0x0 PUSH8 0xDE0B6B3A7640000 DUP3 DUP6 PUSH2 0x546 SWAP2 SWAP1 PUSH2 0xAA3 JUMP JUMPDEST PUSH2 0x550 SWAP2 SWAP1 PUSH2 0xB2C JUMP JUMPDEST SWAP1 POP DUP1 SWAP3 POP POP POP SWAP2 SWAP1 POP JUMP JUMPDEST PUSH1 0x0 DUP1 PUSH20 0xD4A33860578DE61DBABDC8BFDB98FD742FA7028E SWAP1 POP DUP1 PUSH20 0xFFFFFFFFFFFFFFFFFFFFFFFFFFFFFFFFFFFFFFFF AND PUSH4 0x54FD4D50 PUSH1 0x40 MLOAD DUP2 PUSH4 0xFFFFFFFF AND PUSH1 0xE0 SHL DUP2 MSTORE PUSH1 0x4 ADD PUSH1 0x20 PUSH1 0x40 MLOAD DUP1 DUP4 SUB DUP2 DUP7 GAS STATICCALL ISZERO DUP1 ISZERO PUSH2 0x5C1 JUMPI RETURNDATASIZE PUSH1 0x0 DUP1 RETURNDATACOPY RETURNDATASIZE PUSH1 0x0 REVERT JUMPDEST POP POP POP POP PUSH1 0x40 MLOAD RETURNDATASIZE PUSH1 0x1F NOT PUSH1 0x1F DUP3 ADD AND DUP3 ADD DUP1 PUSH1 0x40 MSTORE POP DUP2 ADD SWAP1 PUSH2 0x5E5 SWAP2 SWAP1 PUSH2 0xB72 JUMP JUMPDEST SWAP2 POP POP SWAP1 JUMP JUMPDEST DUP3 DUP1 SLOAD DUP3 DUP3 SSTORE SWAP1 PUSH1 0x0 MSTORE PUSH1 0x20 PUSH1 0x0 KECCAK256 SWAP1 DUP2 ADD SWAP3 DUP3 ISZERO PUSH2 0x664 JUMPI SWAP2 PUSH1 0x20 MUL DUP3 ADD JUMPDEST DUP3 DUP2 GT ISZERO PUSH2 0x663 JUMPI DUP3 MLOAD DUP3 PUSH1 0x0 PUSH2 0x100 EXP DUP2 SLOAD DUP2 PUSH20 0xFFFFFFFFFFFFFFFFFFFFFFFFFFFFFFFFFFFFFFFF MUL NOT AND SWAP1 DUP4 PUSH20 0xFFFFFFFFFFFFFFFFFFFFFFFFFFFFFFFFFFFFFFFF AND MUL OR SWAP1 SSTORE POP SWAP2 PUSH1 0x20 ADD SWAP2 SWAP1 PUSH1 0x1 ADD SWAP1 PUSH2 0x60B JUMP JUMPDEST JUMPDEST POP SWAP1 POP PUSH2 0x671 SWAP2 SWAP1 PUSH2 0x675 JUMP JUMPDEST POP SWAP1 JUMP JUMPDEST JUMPDEST DUP1 DUP3 GT ISZERO PUSH2 0x68E JUMPI PUSH1 0x0 DUP2 PUSH1 0x0 SWAP1 SSTORE POP PUSH1 0x1 ADD PUSH2 0x676 JUMP JUMPDEST POP SWAP1 JUMP JUMPDEST PUSH1 0x0 DUP2 SWAP1 POP SWAP2 SWAP1 POP JUMP JUMPDEST PUSH2 0x6A5 DUP2 PUSH2 0x692 JUMP JUMPDEST DUP3 MSTORE POP POP JUMP JUMPDEST PUSH1 0x0 PUSH1 0x20 DUP3 ADD SWAP1 POP PUSH2 0x6C0 PUSH1 0x0 DUP4 ADD DUP5 PUSH2 0x69C JUMP JUMPDEST SWAP3 SWAP2 POP POP JUMP JUMPDEST PUSH1 0x0 DUP1 REVERT JUMPDEST PUSH1 0x0 PUSH20 0xFFFFFFFFFFFFFFFFFFFFFFFFFFFFFFFFFFFFFFFF DUP3 AND SWAP1 POP SWAP2 SWAP1 POP JUMP JUMPDEST PUSH1 0x0 PUSH2 0x6F6 DUP3 PUSH2 0x6CB JUMP JUMPDEST SWAP1 POP SWAP2 SWAP1 POP JUMP JUMPDEST PUSH2 0x706 DUP2 PUSH2 0x6EB JUMP JUMPDEST DUP2 EQ PUSH2 0x711 JUMPI PUSH1 0x0 DUP1 REVERT JUMPDEST POP JUMP JUMPDEST PUSH1 0x0 DUP2 CALLDATALOAD SWAP1 POP PUSH2 0x723 DUP2 PUSH2 0x6FD JUMP JUMPDEST SWAP3 SWAP2 POP POP JUMP JUMPDEST PUSH1 0x0 PUSH1 0x20 DUP3 DUP5 SUB SLT ISZERO PUSH2 0x73F JUMPI PUSH2 0x73E PUSH2 0x6C6 JUMP JUMPDEST JUMPDEST PUSH1 0x0 PUSH2 0x74D DUP5 DUP3 DUP6 ADD PUSH2 0x714 JUMP JUMPDEST SWAP2 POP POP SWAP3 SWAP2 POP POP JUMP JUMPDEST PUSH2 0x75F DUP2 PUSH2 0x6EB JUMP JUMPDEST DUP3 MSTORE POP POP JUMP JUMPDEST PUSH1 0x0 PUSH1 0x20 DUP3 ADD SWAP1 POP PUSH2 0x77A PUSH1 0x0 DUP4 ADD DUP5 PUSH2 0x756 JUMP JUMPDEST SWAP3 SWAP2 POP POP JUMP JUMPDEST PUSH2 0x789 DUP2 PUSH2 0x692 JUMP JUMPDEST DUP2 EQ PUSH2 0x794 JUMPI PUSH1 0x0 DUP1 REVERT JUMPDEST POP JUMP JUMPDEST PUSH1 0x0 DUP2 CALLDATALOAD SWAP1 POP PUSH2 0x7A6 DUP2 PUSH2 0x780 JUMP JUMPDEST SWAP3 SWAP2 POP POP JUMP JUMPDEST PUSH1 0x0 PUSH1 0x20 DUP3 DUP5 SUB SLT ISZERO PUSH2 0x7C2 JUMPI PUSH2 0x7C1 PUSH2 0x6C6 JUMP JUMPDEST JUMPDEST PUSH1 0x0 PUSH2 0x7D0 DUP5 DUP3 DUP6 ADD PUSH2 0x797 JUMP JUMPDEST SWAP2 POP POP SWAP3 SWAP2 POP POP JUMP JUMPDEST PUSH1 0x0 DUP3 DUP3 MSTORE PUSH1 0x20 DUP3 ADD SWAP1 POP SWAP3 SWAP2 POP POP JUMP JUMPDEST PUSH32 0x596F757220617265206E6F7420746865206F776E6572206F662074686520636F PUSH1 0x0 DUP3 ADD MSTORE PUSH32 0x6E74726163740000000000000000000000000000000000000000000000000000 PUSH1 0x20 DUP3 ADD MSTORE POP JUMP JUMPDEST PUSH1 0x0 PUSH2 0x846 PUSH1 0x26 DUP4 PUSH2 0x7D9 JUMP JUMPDEST SWAP2 POP PUSH2 0x851 DUP3 PUSH2 0x7EA JUMP JUMPDEST PUSH1 0x40 DUP3 ADD SWAP1 POP SWAP2 SWAP1 POP JUMP JUMPDEST PUSH1 0x0 PUSH1 0x20 DUP3 ADD SWAP1 POP DUP2 DUP2 SUB PUSH1 0x0 DUP4 ADD MSTORE PUSH2 0x875 DUP2 PUSH2 0x839 JUMP JUMPDEST SWAP1 POP SWAP2 SWAP1 POP JUMP JUMPDEST PUSH32 0x4E487B7100000000000000000000000000000000000000000000000000000000 PUSH1 0x0 MSTORE PUSH1 0x32 PUSH1 0x4 MSTORE PUSH1 0x24 PUSH1 0x0 REVERT JUMPDEST PUSH32 0x4E487B7100000000000000000000000000000000000000000000000000000000 PUSH1 0x0 MSTORE PUSH1 0x11 PUSH1 0x4 MSTORE PUSH1 0x24 PUSH1 0x0 REVERT JUMPDEST PUSH1 0x0 PUSH2 0x8E5 DUP3 PUSH2 0x692 JUMP JUMPDEST SWAP2 POP PUSH32 0xFFFFFFFFFFFFFFFFFFFFFFFFFFFFFFFFFFFFFFFFFFFFFFFFFFFFFFFFFFFFFFFF DUP3 SUB PUSH2 0x917 JUMPI PUSH2 0x916 PUSH2 0x8AB JUMP JUMPDEST JUMPDEST PUSH1 0x1 DUP3 ADD SWAP1 POP SWAP2 SWAP1 POP JUMP JUMPDEST PUSH32 0x4E487B7100000000000000000000000000000000000000000000000000000000 PUSH1 0x0 MSTORE PUSH1 0x41 PUSH1 0x4 MSTORE PUSH1 0x24 PUSH1 0x0 REVERT JUMPDEST PUSH1 0x0 DUP2 SWAP1 POP SWAP3 SWAP2 POP POP JUMP JUMPDEST POP JUMP JUMPDEST PUSH1 0x0 PUSH2 0x96C PUSH1 0x0 DUP4 PUSH2 0x951 JUMP JUMPDEST SWAP2 POP PUSH2 0x977 DUP3 PUSH2 0x95C JUMP JUMPDEST PUSH1 0x0 DUP3 ADD SWAP1 POP SWAP2 SWAP1 POP JUMP JUMPDEST PUSH1 0x0 PUSH2 0x98D DUP3 PUSH2 0x95F JUMP JUMPDEST SWAP2 POP DUP2 SWAP1 POP SWAP2 SWAP1 POP JUMP JUMPDEST PUSH32 0x43616C6C206661696C6564000000000000000000000000000000000000000000 PUSH1 0x0 DUP3 ADD MSTORE POP JUMP JUMPDEST PUSH1 0x0 PUSH2 0x9CD PUSH1 0xB DUP4 PUSH2 0x7D9 JUMP JUMPDEST SWAP2 POP PUSH2 0x9D8 DUP3 PUSH2 0x997 JUMP JUMPDEST PUSH1 0x20 DUP3 ADD SWAP1 POP SWAP2 SWAP1 POP JUMP JUMPDEST PUSH1 0x0 PUSH1 0x20 DUP3 ADD SWAP1 POP DUP2 DUP2 SUB PUSH1 0x0 DUP4 ADD MSTORE PUSH2 0x9FC DUP2 PUSH2 0x9C0 JUMP JUMPDEST SWAP1 POP SWAP2 SWAP1 POP JUMP JUMPDEST PUSH32 0x4469646E27742073656E6420656E6F7567682100000000000000000000000000 PUSH1 0x0 DUP3 ADD MSTORE POP JUMP JUMPDEST PUSH1 0x0 PUSH2 0xA39 PUSH1 0x13 DUP4 PUSH2 0x7D9 JUMP JUMPDEST SWAP2 POP PUSH2 0xA44 DUP3 PUSH2 0xA03 JUMP JUMPDEST PUSH1 0x20 DUP3 ADD SWAP1 POP SWAP2 SWAP1 POP JUMP JUMPDEST PUSH1 0x0 PUSH1 0x20 DUP3 ADD SWAP1 POP DUP2 DUP2 SUB PUSH1 0x0 DUP4 ADD MSTORE PUSH2 0xA68 DUP2 PUSH2 0xA2C JUMP JUMPDEST SWAP1 POP SWAP2 SWAP1 POP JUMP JUMPDEST PUSH1 0x0 PUSH2 0xA7A DUP3 PUSH2 0x692 JUMP JUMPDEST SWAP2 POP PUSH2 0xA85 DUP4 PUSH2 0x692 JUMP JUMPDEST SWAP3 POP DUP3 DUP3 ADD SWAP1 POP DUP1 DUP3 GT ISZERO PUSH2 0xA9D JUMPI PUSH2 0xA9C PUSH2 0x8AB JUMP JUMPDEST JUMPDEST SWAP3 SWAP2 POP POP JUMP JUMPDEST PUSH1 0x0 PUSH2 0xAAE DUP3 PUSH2 0x692 JUMP JUMPDEST SWAP2 POP PUSH2 0xAB9 DUP4 PUSH2 0x692 JUMP JUMPDEST SWAP3 POP DUP2 PUSH32 0xFFFFFFFFFFFFFFFFFFFFFFFFFFFFFFFFFFFFFFFFFFFFFFFFFFFFFFFFFFFFFFFF DIV DUP4 GT DUP3 ISZERO ISZERO AND ISZERO PUSH2 0xAF2 JUMPI PUSH2 0xAF1 PUSH2 0x8AB JUMP JUMPDEST JUMPDEST DUP3 DUP3 MUL SWAP1 POP SWAP3 SWAP2 POP POP JUMP JUMPDEST PUSH32 0x4E487B7100000000000000000000000000000000000000000000000000000000 PUSH1 0x0 MSTORE PUSH1 0x12 PUSH1 0x4 MSTORE PUSH1 0x24 PUSH1 0x0 REVERT JUMPDEST PUSH1 0x0 PUSH2 0xB37 DUP3 PUSH2 0x692 JUMP JUMPDEST SWAP2 POP PUSH2 0xB42 DUP4 PUSH2 0x692 JUMP JUMPDEST SWAP3 POP DUP3 PUSH2 0xB52 JUMPI PUSH2 0xB51 PUSH2 0xAFD JUMP JUMPDEST JUMPDEST DUP3 DUP3 DIV SWAP1 POP SWAP3 SWAP2 POP POP JUMP JUMPDEST PUSH1 0x0 DUP2 MLOAD SWAP1 POP PUSH2 0xB6C DUP2 PUSH2 0x780 JUMP JUMPDEST SWAP3 SWAP2 POP POP JUMP JUMPDEST PUSH1 0x0 PUSH1 0x20 DUP3 DUP5 SUB SLT ISZERO PUSH2 0xB88 JUMPI PUSH2 0xB87 PUSH2 0x6C6 JUMP JUMPDEST JUMPDEST PUSH1 0x0 PUSH2 0xB96 DUP5 DUP3 DUP6 ADD PUSH2 0xB5D JUMP JUMPDEST SWAP2 POP POP SWAP3 SWAP2 POP POP JUMP INVALID LOG2 PUSH5 0x6970667358 0x22 SLT KECCAK256 0xDE DUP14 0xC3 CREATE2 0x2C 0xC3 PUSH29 0x7E977BDB7EDB19B01C61C9BC5833F07EBC0230B59D30A69FE64736F6C PUSH4 0x43000810 STOP CALLER "
				},
				"gasEstimates": {
					"creation": {
						"codeDepositCost": "605800",
						"executionCost": "47010",
						"totalCost": "652810"
					},
					"external": {
						"addressToAmountFunded(address)": "2836",
						"fund()": "infinite",
						"funders(uint256)": "5044",
						"minimumUsd()": "2407",
						"owner()": "2558",
						"withdraw()": "infinite"
					}
				},
				"methodIdentifiers": {
					"addressToAmountFunded(address)": "3e47d6f3",
					"fund()": "b60d4288",
					"funders(uint256)": "dc0d3dff",
					"minimumUsd()": "098de820",
					"owner()": "8da5cb5b",
					"withdraw()": "3ccfd60b"
				}
			},
			"storageLayout": {
				"storage": [
					{
						"astId": 56,
						"contract": "contracts/FundMe.sol:FundMe",
						"label": "minimumUsd",
						"offset": 0,
						"slot": "0",
						"type": "t_uint256"
					},
					{
						"astId": 59,
						"contract": "contracts/FundMe.sol:FundMe",
						"label": "funders",
						"offset": 0,
						"slot": "1",
						"type": "t_array(t_address)dyn_storage"
					},
					{
						"astId": 63,
						"contract": "contracts/FundMe.sol:FundMe",
						"label": "addressToAmountFunded",
						"offset": 0,
						"slot": "2",
						"type": "t_mapping(t_address,t_uint256)"
					},
					{
						"astId": 65,
						"contract": "contracts/FundMe.sol:FundMe",
						"label": "owner",
						"offset": 0,
						"slot": "3",
						"type": "t_address"
					}
				],
				"types": {
					"t_address": {
						"encoding": "inplace",
						"label": "address",
						"numberOfBytes": "20"
					},
					"t_array(t_address)dyn_storage": {
						"base": "t_address",
						"encoding": "dynamic_array",
						"label": "address[]",
						"numberOfBytes": "32"
					},
					"t_mapping(t_address,t_uint256)": {
						"encoding": "mapping",
						"key": "t_address",
						"label": "mapping(address => uint256)",
						"numberOfBytes": "32",
						"value": "t_uint256"
					},
					"t_uint256": {
						"encoding": "inplace",
						"label": "uint256",
						"numberOfBytes": "32"
					}
				}
			},
			"userdoc": {
				"kind": "user",
				"methods": {},
				"version": 1
			}
		}
	}
}